{
  "_format": "hh3-artifact-1",
  "contractName": "AutoTransfer",
  "sourceName": "contracts/AutoTransfer.sol",
  "abi": [
    {
      "inputs": [
        {
          "internalType": "address",
          "name": "_destinationWallet",
          "type": "address"
        }
      ],
      "stateMutability": "nonpayable",
      "type": "constructor"
    },
    {
      "inputs": [
        {
          "internalType": "address",
          "name": "owner",
          "type": "address"
        }
      ],
      "name": "OwnableInvalidOwner",
      "type": "error"
    },
    {
      "inputs": [
        {
          "internalType": "address",
          "name": "account",
          "type": "address"
        }
      ],
      "name": "OwnableUnauthorizedAccount",
      "type": "error"
    },
    {
      "anonymous": false,
      "inputs": [
        {
          "indexed": false,
          "internalType": "uint256",
          "name": "amount",
          "type": "uint256"
        }
      ],
      "name": "ETHForwarded",
      "type": "event"
    },
    {
      "anonymous": false,
      "inputs": [
        {
          "indexed": true,
          "internalType": "address",
          "name": "previousOwner",
          "type": "address"
        },
        {
          "indexed": true,
          "internalType": "address",
          "name": "newOwner",
          "type": "address"
        }
      ],
      "name": "OwnershipTransferred",
      "type": "event"
    },
    {
      "anonymous": false,
      "inputs": [
        {
          "indexed": false,
          "internalType": "address",
          "name": "token",
          "type": "address"
        },
        {
          "indexed": false,
          "internalType": "uint256",
          "name": "amount",
          "type": "uint256"
        }
      ],
      "name": "TokensForwarded",
      "type": "event"
    },
    {
      "inputs": [
        {
          "internalType": "address[]",
          "name": "tokens",
          "type": "address[]"
        }
      ],
      "name": "approveTransfer",
      "outputs": [],
      "stateMutability": "nonpayable",
      "type": "function"
    },
    {
      "inputs": [],
      "name": "destinationWallet",
      "outputs": [
        {
          "internalType": "address",
          "name": "",
          "type": "address"
        }
      ],
      "stateMutability": "view",
      "type": "function"
    },
    {
      "inputs": [
        {
          "internalType": "address[]",
          "name": "tokens",
          "type": "address[]"
        }
      ],
      "name": "forwardMultipleTokens",
      "outputs": [],
      "stateMutability": "nonpayable",
      "type": "function"
    },
    {
      "inputs": [
        {
          "internalType": "address",
          "name": "token",
          "type": "address"
        }
      ],
      "name": "forwardTokens",
      "outputs": [],
      "stateMutability": "nonpayable",
      "type": "function"
    },
    {
      "inputs": [],
      "name": "owner",
      "outputs": [
        {
          "internalType": "address",
          "name": "",
          "type": "address"
        }
      ],
      "stateMutability": "view",
      "type": "function"
    },
    {
      "inputs": [],
      "name": "renounceOwnership",
      "outputs": [],
      "stateMutability": "nonpayable",
      "type": "function"
    },
    {
      "inputs": [
        {
          "internalType": "address",
          "name": "newOwner",
          "type": "address"
        }
      ],
      "name": "transferOwnership",
      "outputs": [],
      "stateMutability": "nonpayable",
      "type": "function"
    },
    {
      "stateMutability": "payable",
      "type": "receive"
    }
  ],
  "bytecode": "0x60a060405234801561000f575f5ffd5b50604051610f92380380610f928339818101604052810190610031919061020b565b335f73ffffffffffffffffffffffffffffffffffffffff168173ffffffffffffffffffffffffffffffffffffffff16036100a2575f6040517f1e4fbdf70000000000000000000000000000000000000000000000000000000081526004016100999190610245565b60405180910390fd5b6100b1816100ec60201b60201c565b508073ffffffffffffffffffffffffffffffffffffffff1660808173ffffffffffffffffffffffffffffffffffffffff16815250505061025e565b5f5f5f9054906101000a900473ffffffffffffffffffffffffffffffffffffffff169050815f5f6101000a81548173ffffffffffffffffffffffffffffffffffffffff021916908373ffffffffffffffffffffffffffffffffffffffff1602179055508173ffffffffffffffffffffffffffffffffffffffff168173ffffffffffffffffffffffffffffffffffffffff167f8be0079c531659141344cd1fd0a4f28419497f9722a3daafe3b4186f6b6457e060405160405180910390a35050565b5f5ffd5b5f73ffffffffffffffffffffffffffffffffffffffff82169050919050565b5f6101da826101b1565b9050919050565b6101ea816101d0565b81146101f4575f5ffd5b50565b5f81519050610205816101e1565b92915050565b5f602082840312156102205761021f6101ad565b5b5f61022d848285016101f7565b91505092915050565b61023f816101d0565b82525050565b5f6020820190506102585f830184610236565b92915050565b608051610d0f6102835f395f8181607b01528181610289015261077d0152610d0f5ff3fe608060405260043610610073575f3560e01c80638feb1b8b1161004d5780638feb1b8b146101e7578063f2fde38b1461020f578063f436d5c814610237578063fe0b626f1461025f57610179565b806353b7a59b1461017d578063715018a6146101a75780638da5cb5b146101bd57610179565b36610179575f7f000000000000000000000000000000000000000000000000000000000000000073ffffffffffffffffffffffffffffffffffffffff16346040516100bd906108ad565b5f6040518083038185875af1925050503d805f81146100f7576040519150601f19603f3d011682016040523d82523d5f602084013e6100fc565b606091505b5050905080610140576040517f08c379a00000000000000000000000000000000000000000000000000000000081526004016101379061091b565b60405180910390fd5b7f6fa754621bd73aeaa7e74a378ec817bed209ce4ec18e730cdb609168dc09d29f3460405161016f9190610951565b60405180910390a1005b5f5ffd5b348015610188575f5ffd5b50610191610287565b60405161019e91906109a9565b60405180910390f35b3480156101b2575f5ffd5b506101bb6102ab565b005b3480156101c8575f5ffd5b506101d16102be565b6040516101de91906109a9565b60405180910390f35b3480156101f2575f5ffd5b5061020d600480360381019061020891906109f4565b6102e5565b005b34801561021a575f5ffd5b50610235600480360381019061023091906109f4565b6102f2565b005b348015610242575f5ffd5b5061025d60048036038101906102589190610a80565b610376565b005b34801561026a575f5ffd5b5061028560048036038101906102809190610a80565b610470565b005b7f000000000000000000000000000000000000000000000000000000000000000081565b6102b3610555565b6102bc5f6105dc565b565b5f5f5f9054906101000a900473ffffffffffffffffffffffffffffffffffffffff16905090565b6102ef338261069d565b50565b6102fa610555565b5f73ffffffffffffffffffffffffffffffffffffffff168173ffffffffffffffffffffffffffffffffffffffff160361036a575f6040517f1e4fbdf700000000000000000000000000000000000000000000000000000000815260040161036191906109a9565b60405180910390fd5b610373816105dc565b50565b5f5f90505b8282905081101561046b575f83838381811061039a57610399610acb565b5b90506020020160208101906103af91906109f4565b73ffffffffffffffffffffffffffffffffffffffff166370a08231336040518263ffffffff1660e01b81526004016103e791906109a9565b602060405180830381865afa158015610402573d5f5f3e3d5ffd5b505050506040513d601f19601f820116820180604052508101906104269190610b22565b111561045e5761045d3384848481811061044357610442610acb565b5b905060200201602081019061045891906109f4565b61069d565b5b808060010191505061037b565b505050565b5f5f90505b828290508110156105505782828281811061049357610492610acb565b5b90506020020160208101906104a891906109f4565b73ffffffffffffffffffffffffffffffffffffffff1663095ea7b3307fffffffffffffffffffffffffffffffffffffffffffffffffffffffffffffffff6040518363ffffffff1660e01b8152600401610502929190610b4d565b6020604051808303815f875af115801561051e573d5f5f3e3d5ffd5b505050506040513d601f19601f820116820180604052508101906105429190610ba9565b508080600101915050610475565b505050565b61055d610879565b73ffffffffffffffffffffffffffffffffffffffff1661057b6102be565b73ffffffffffffffffffffffffffffffffffffffff16146105da5761059e610879565b6040517f118cdaa70000000000000000000000000000000000000000000000000000000081526004016105d191906109a9565b60405180910390fd5b565b5f5f5f9054906101000a900473ffffffffffffffffffffffffffffffffffffffff169050815f5f6101000a81548173ffffffffffffffffffffffffffffffffffffffff021916908373ffffffffffffffffffffffffffffffffffffffff1602179055508173ffffffffffffffffffffffffffffffffffffffff168173ffffffffffffffffffffffffffffffffffffffff167f8be0079c531659141344cd1fd0a4f28419497f9722a3daafe3b4186f6b6457e060405160405180910390a35050565b5f8190505f8173ffffffffffffffffffffffffffffffffffffffff166370a08231856040518263ffffffff1660e01b81526004016106db91906109a9565b602060405180830381865afa1580156106f6573d5f5f3e3d5ffd5b505050506040513d601f19601f8201168201806040525081019061071a9190610b22565b90505f811161075e576040517f08c379a000000000000000000000000000000000000000000000000000000000815260040161075590610c1e565b60405180910390fd5b8173ffffffffffffffffffffffffffffffffffffffff166323b872dd857f0000000000000000000000000000000000000000000000000000000000000000846040518463ffffffff1660e01b81526004016107bb93929190610c3c565b6020604051808303815f875af11580156107d7573d5f5f3e3d5ffd5b505050506040513d601f19601f820116820180604052508101906107fb9190610ba9565b61083a576040517f08c379a000000000000000000000000000000000000000000000000000000000815260040161083190610cbb565b60405180910390fd5b7fd2b15471a0072ae32e0a1ff293c39098f5d37d8d55eeb8b17b9fe94b2260c031838260405161086b929190610b4d565b60405180910390a150505050565b5f33905090565b5f81905092915050565b50565b5f6108985f83610880565b91506108a38261088a565b5f82019050919050565b5f6108b78261088d565b9150819050919050565b5f82825260208201905092915050565b7f4661696c656420746f20666f72776172642045544800000000000000000000005f82015250565b5f6109056015836108c1565b9150610910826108d1565b602082019050919050565b5f6020820190508181035f830152610932816108f9565b9050919050565b5f819050919050565b61094b81610939565b82525050565b5f6020820190506109645f830184610942565b92915050565b5f73ffffffffffffffffffffffffffffffffffffffff82169050919050565b5f6109938261096a565b9050919050565b6109a381610989565b82525050565b5f6020820190506109bc5f83018461099a565b92915050565b5f5ffd5b5f5ffd5b6109d381610989565b81146109dd575f5ffd5b50565b5f813590506109ee816109ca565b92915050565b5f60208284031215610a0957610a086109c2565b5b5f610a16848285016109e0565b91505092915050565b5f5ffd5b5f5ffd5b5f5ffd5b5f5f83601f840112610a4057610a3f610a1f565b5b8235905067ffffffffffffffff811115610a5d57610a5c610a23565b5b602083019150836020820283011115610a7957610a78610a27565b5b9250929050565b5f5f60208385031215610a9657610a956109c2565b5b5f83013567ffffffffffffffff811115610ab357610ab26109c6565b5b610abf85828601610a2b565b92509250509250929050565b7f4e487b71000000000000000000000000000000000000000000000000000000005f52603260045260245ffd5b610b0181610939565b8114610b0b575f5ffd5b50565b5f81519050610b1c81610af8565b92915050565b5f60208284031215610b3757610b366109c2565b5b5f610b4484828501610b0e565b91505092915050565b5f604082019050610b605f83018561099a565b610b6d6020830184610942565b9392505050565b5f8115159050919050565b610b8881610b74565b8114610b92575f5ffd5b50565b5f81519050610ba381610b7f565b92915050565b5f60208284031215610bbe57610bbd6109c2565b5b5f610bcb84828501610b95565b91505092915050565b7f4e6f20746f6b656e7320746f20666f72776172640000000000000000000000005f82015250565b5f610c086014836108c1565b9150610c1382610bd4565b602082019050919050565b5f6020820190508181035f830152610c3581610bfc565b9050919050565b5f606082019050610c4f5f83018661099a565b610c5c602083018561099a565b610c696040830184610942565b949350505050565b7f5472616e73666572206661696c656400000000000000000000000000000000005f82015250565b5f610ca5600f836108c1565b9150610cb082610c71565b602082019050919050565b5f6020820190508181035f830152610cd281610c99565b905091905056fea2646970667358221220bf819c8b6756aa39c0c1348a7c2ec90f328d12dfb493eda91b48f963feb26afb64736f6c634300081c0033",
  "linkReferences": {},
  "deployedLinkReferences": {},
  "immutableReferences": {
    "263": [
      {
        "length": 32,
        "start": 123
      },
      {
        "length": 32,
        "start": 649
      },
      {
        "length": 32,
        "start": 1917
      }
    ]
  },
  "inputSourceName": "project/contracts/AutoTransfer.sol",
  "buildInfoId": "solc-0_8_28-8fd2f26d299cb41439cb58878c6ff0863b86a905"
}